:100000000EC029C028C027C026C025C024C023C0D8
:1000100022C021C020C01FC01EC01DC01CC0112492
:100020001FBECFE5D2E0DEBFCDBF10E0A0E6B0E05E
:10003000EEE8F0E003C0C89531960D92A036B10706
:10004000D1F710E0A0E6B0E001C01D92A036B107E4
:10005000E1F702D01BC0D4CFCFE5D2E0DEBFCDBFE9
:10006000B89AC09A20E137E289E190E00197F1F770
:1000700021503040C9F7C09820E137E289E190E093
:0E0080000197F1F721503040C9F7EBCFFFCFC9
:00000001FF
