:10000000BFC00000D8C00000D6C00000D4C00000AF
:10001000D2C00000D0C00000CEC00000CCC00000A4
:10002000CAC00000C8C0000094C10000CDC10000DB
:10003000C2C00000C0C00000BEC00000BCC00000C4
:10004000BAC00000B8C00000B6C00000B4C00000D4
:10005000B2C00000B0C00000AEC00000ACC00000E4
:10006000AAC00000A8C00000A6C00000A4C00000F4
:10007000A2C00000A0C000009EC000009CC0000004
:100080009AC0000098C0000096C0000094C0000014
:1000900092C0000090C000008EC000008CC0000024
:1000A0008AC0000088C0000086C00000000104066D
:1000B0000725242322212000010000EB001200026A
:1000C0000000FD0043000300004001040103090497
:1000D000440114020309045A0116030309047201BE
:1000E0000C0001C1120180360181361201000202AA
:1000F000000010C0167A0400010102030109024346
:1001000000020100C03209040000010202010005E2
:10011000240010010524010101042402060524061F
:1001200000010705820310004009040100020A00D3
:10013000000007050302400000070584024000009C
:1001400004030904140359006F00750072002000B5
:100150004E0061006D00650000001603550053005D
:1001600042002000530065007200690061006C00CD
:1001700000000C0331003200330034003500000071
:1001800011241FBECFEFDAE0DEBFCDBF11E0A0E04B
:10019000B1E0E2EAF6E002C005900D92AA30B107A4
:1001A000D9F711E0AAE0B1E001C01D92A031B1077A
:1001B000E1F731D074C224CF96E890937A00982F5B
:1001C0009072906890937B008F7190910101982BB1
:1001D00090937C0086EC80937A0080917A0086FD73
:1001E000FCCF2091780040917900942F80E030E09E
:1001F000282B392BC90108958C3018F020E030E00D
:1002000008C0E82FF0E0E455FF4FE4918E2FD4DFD3
:100210009C01C901089580E88093610010926100FB
:1002200018D0569A5E9A81E0E7DF90930F01809391
:100230000E0128D097FD01C04AD080910E0147D011
:1002400080910E0190910F01181619065CF75E98C7
:10025000EACF81E08093D70080EA8093D80082E1E2
:1002600089BD09B400FEFDCF80E98093D8001092CB
:10027000E00010920A0110920B018CE08093E200E2
:10028000789408952FB7F89480910A01882369F033
:1002900083E08093E9009BE68091E80085FD09C03A
:1002A00082FF03C09093E800F7CF2FBF2FEF3FEFFF
:1002B0000CC09091F1008091E80085FD03C08BE6B1
:1002C0008093E8002FBF292F30E0C9010895482FFF
:1002D00080910A018823D9F12FB7F89484E08093A4
:1002E000E90080910D01882341F08091E80085FDAF
:1002F00002C02FBF12C010920D019091E400975ED2
:1003000034E08091E80085FD13C02FBF8091E400A8
:10031000891729F481E080930D018FEF0895809172
:100320000A018823A1F02FB7F8943093E900E9CFB0
:100330004093F1008091E80085FD03C08AE380933B
:10034000E80085E080930C012FBF80E008958FEFD7
:1003500008951F920F920FB60F9211248F939F93BF
:100360008091E1001092E100982F83FF11C010925C
:10037000E90081E08093EB001092EC0082E1809331
:10038000ED0088E08093F00010920A0110920B01BA
:1003900092FF13C080910A01882379F080910C01AB
:1003A000882359F0815080930C01882331F484E034
:1003B0008093E9008AE38093E8009F918F910F90EA
:1003C0000FBE0F901F9018951F920F920FB60F92AD
:1003D00011240F931F932F933F934F935F936F932A
:1003E0007F938F939F93AF93BF93EF93FF9310925D
:1003F000E9008091E80083FF3CC14091F100309119
:10040000F1008091F100682F70E02091F100922FAF
:1004100080E0682B792B8091F100A82FB0E020912B
:10042000F100922F80E0A82BB92B1091F1000091E0
:10043000F10082EF8093E800363009F05AC02EEBCD
:1004400030E0A90145505040F901379785919491CA
:100450008617970701F5FA01859194918A179B07F2
:10046000D1F49A012E5F3F4FF901659174912E5F8F
:100470003F4FF9014491212F30E0902F80E0282B4D
:10048000392B2F3F310519F010F02FEF30E02417F2
:1004900058F4422F09C0295F3F4F495F5F4FF0E09A
:1004A000283E3F0789F6E5C05EEF8091E800282FDF
:1004B00030E0C90185709070892BB9F322FDDCC052
:1004C000342F413108F030E1232FCB0106C0FC016D
:1004D0000196E491E093F10021502223C1F7630FCC
:1004E000711D431B5093E8004423F9F63031E9F2C3
:1004F000C3C0353061F48EEF8093E8008091E8004E
:1005000080FFFCCF862F80688093E300B5C0393030
:1005100051F5442309F0ADC060930A0110920B011C
:1005200010920C018EEF8093E80081EE90E021E0C4
:100530002093E900FC010196E491E093EB00EE23A7
:1005400069F0AC014F5F5F4FFC0184918093EC0038
:10055000CA010196FA0134913093ED002F5F2530E6
:1005600039F78EE181C0383061F4403809F081C03C
:100570008091E80080FFFCCF80910A018093F10018
:1005800050C0313289F4413A09F073C08091E800DB
:1005900080FFFCCFE2E0F1E081918093F10081E007
:1005A000E930F807C9F73DC03032A1F4413209F013
:1005B00060C08091E80082FFFCCFE2E0F1E0809132
:1005C000F100819381E0E930F807C9F78BEF809360
:1005D000E80027C0323251F4413209F04AC060933A
:1005E0000B018091E80080FFFCCF1BC03323E9F4AE
:1005F0008091E80080FFFCCF423811F080E00DC010
:10060000A093E9008091EB0090E025E09695879516
:100610002A95E1F781701092E9008093F100109221
:10062000F1008EEF8093E80027C0313011F03330B5
:1006300001F54230F1F4672BE1F42A2F2F77822F56
:1006400081508430B0F48EEF8093E8002093E9006D
:10065000333079F089E18093EB0081E090E002C0D3
:10066000880F991F2A95E2F78093EA001092EA001A
:1006700003C081E28093EB00FF91EF91BF91AF91B6
:100680009F918F917F916F915F914F913F912F91AA
:100690001F910F910F900FBE0F901F901895F89417
:0206A000FFCF8A
:0A06A200784000E1000000000800AD
:00000001FF
